:100000001AC03FC03EC03DC03CC03BC03AC039C032
:1000100038C0E2C136C035C034C033C032C031C090
:1000200030C02FC02EC02DC02CC02BC02AC029C06C
:1000300028C027C0570211241FBECFEFCDBFDFE37A
:10004000DEBF8091400080934000811105C098ED93
:1000500021E094BF209341008CBB2FE3A0E8BFE3D5
:1000600001C01D92A53BB207E1F710E0CBE1D0E063
:1000700003C02197FE016FD2CA31D107D1F7E6D173
:1000800070C2BECF8F929F92AF92BF92CF92DF92FB
:10009000EF92FF920F931F93CF93DF93EC018A812E
:1000A0009B81DC01ED91FC910280F381E02D0995AB
:1000B00031E0282F23279FB7F8944091AD3F50910E
:1000C000AE3F6091AF3F7091B03F9FBFCF80D8846B
:1000D000E984FA844A015B018C189D08AE08BF08C8
:1000E000750164019C819130D1F088F0923061F10A
:1000F000933079F1DF91CF911F910F91FF90EF90A5
:10010000DF90CF90BF90AF909F908F900895222363
:1001100089F33C834F83588769877A87EBCF88239D
:1001200011F01C82F7CF0D811E8130E020E0C01657
:10013000D106E206F306F0F282E08C834F83588703
:1001400069877A879B87D6CF8823A1F283E08C8347
:10015000E1CF222311F082E0FACF8D819E81B0E0C1
:10016000A0E0C816D906EA06FB06D8F6C3CFDC0124
:1001700012968D919C91DC01ED91FC910190F081A2
:10018000E02D09948630F0F490E0FC01EB56FA473C
:1001900020812F3FB9F0FC01E157FA47E08130E2BE
:1001A000E39FF0011124FC5F60FF0DC0218387579E
:1001B0009A47DC018C91E80FF11D808961FF05C031
:1001C0008860808B08952283F2CF877FFACFFC016D
:1001D0008381813039F018F0823031F0089560E089
:1001E0008281D0CF62E0FCCF61E0FACFCF93DF9382
:1001F000FC018281863008F03EC090E0DC01AB5605
:10020000BA472C912F3FB9F1FC01E157FA47E08141
:1002100030E2E39FF0011124FC5F61112FC02683BF
:1002200030E04081242399F4EC01C757DA47288154
:10023000309739F1283028F57096E20FF11D4FB74D
:10024000F8942081311120C0277F20834FBF8A5925
:100250009A47FC018081882371F0803161F48C9190
:100260008038A1F0853008F0880F9091010A8095C0
:1002700089238093010ADF91CF910895258331E08E
:10028000D0CFF0E0E0E0DBCF2860DFCF81E0EDCF42
:10029000DC0112968C91282F30E08630C8F4F901E9
:1002A000EB56FA4780818F3F99F021573A47D901A1
:1002B000EC91B0E2EB9FF0011124FC5F9085892363
:1002C00091E009F490E081E0911101C080E008958F
:1002D0009FEFF9CF1F93CF93DF93EC01162F8C8103
:1002E0009D81DC01ED91FC910480F581E02D61E0C0
:1002F000099583EC99E00197F1F700C000008A812D
:100300009B81DC01ED91FC910480F581E02D612F52
:1003100009958E819F81DC01ED91FC910480F5812E
:10032000E02D612F099583EC99E00197F1F700C06A
:1003300000008C819D81DC01ED91FC910480F581B0
:10034000E02D60E0DF91CF911F910994FC0162855F
:1003500021E062276287BECFFC01128660E0BACF3F
:1003600021E0FC01228761E0B5CFCF93DF93EC0160
:1003700088859985DC01ED91FC910190F081E02D5B
:1003800009958A819B81DC01ED91FC910190F081BE
:10039000E02D09958C819D81DC01ED91FC9101900E
:1003A000F081E02D09958E819F81DC01ED91FC911A
:1003B0000190F081E02D099588859985DC01ED910A
:1003C000FC910280F381E02D099561E068276A873E
:1003D000CE01DF91CF917ECFEF93FF93EBEAFFE366
:1003E0008F938FB78F939F937F9372E080819181DA
:1003F000885D9F4F80839183885E934018F080834F
:1004000091837F5F9281970F928380E09381981F01
:1004100093839481981F94839581981F95839681E7
:100420009F5F968397819F4F978390859F4F90877B
:1004300091859F4F918782E080930B0A7F919F91D6
:100440008F918FBF8F91FF91EF91189587E098ED75
:1004500094BF80936100E0E0F6E090E592839AE03B
:10046000958390E2938391E090831092020290939F
:10047000030A9EEF9093260A9093270A8093000A1E
:1004800082E080930A0A789484E99FE36EDF8FE923
:100490009FE36DDE8FE99FE3F5DD8091AA3F109227
:1004A000AA3F8823B9F384E99FE350DFF3CF1F937A
:1004B000CF93DF93C0E9DFE383E895E888839983EE
:1004C00024E02A8341E04B83ACE8BFE38D939C9307
:1004D000119712961C92129713964C93139728E833
:1004E0003FE3F9018083918353E0528312E0138349
:1004F00064E87FE3FB01808391834283138340E8B8
:100500005FE3FA018083918312831383E4E9FFE3BD
:1005100087E795E88083918362837383448355835F
:1005200026833783C087D1871286EFE9FFE38FE602
:1005300095E880839183A283B383148284E190E061
:100540008583968317821086118612861386DF9123
:10055000CF911F910895EE0FFF1F0590F491E02DAC
:060560000994F894FFCF9E
:10056600001010100000000000B70042000000005C
:1005760000B501B001AC01A60100000000E700488B
:1005860001F600060701020300000000000000401B
:050596008002040801D1
:00000001FF
