:100000001AC03FC03EC03DC03CC03BC03AC039C032
:1000100038C0FBC136C035C034C033C032C031C077
:1000200030C02FC02EC02DC02CC02BC02AC029C06C
:1000300028C027C06F0211241FBECFEFCDBFDFE362
:10004000DEBF8091400080934000811105C098ED93
:1000500021E094BF209341008CBB2FE3A0E8BFE3D5
:1000600001C01D92A93BB207E1F710E0CBE1D0E05F
:1000700003C02197FE017DD2CA31D107D1F7FFD14C
:100080007EC2BECF8F929F92AF92BF92CF92DF92ED
:10009000EF92FF920F931F93CF93DF93EC018A812E
:1000A0009B81DC01ED91FC910280F381E02D0995AB
:1000B00091E0382F39272FB7F8944091B13F5091F4
:1000C000B23F6091B33F7091B43F2FBFC984DA84CF
:1000D000EB84FC844A015B018C189D08AE08BF08C4
:1000E000750164012C812130E9F090F0223079F122
:1000F000233009F442C0DF91CF911F910F91FF90FF
:10010000EF90DF90CF90BF90AF909F908F90089529
:10011000332329F09C8349875A876B877C871E8607
:100120001F86E9CF882311F01C8222C08D819E8119
:10013000B0E0A0E0C816D906EA06FB06E0F282E0CD
:100140008C8349875A876B877C871D86D4CF33235E
:1001500059F00F81188530E020E0C016D106E20684
:10016000F30610F09D87C7CF882329F283E08C83A4
:1001700049875A876B877C87BECF3111E0CF0D81CD
:100180001E8130E020E0C016D106E206F30608F436
:10019000B2CF8D85882311F09F87C6CF9E87C4CFAD
:1001A000DC0112968D919C91DC01ED91FC91019006
:1001B000F081E02D09948630F0F490E0FC01EF54DA
:1001C000FA4720812F3FB9F0FC01E555FA47E0815D
:1001D00030E2E39FF0011124FC5F60FF0DC021833A
:1001E0008B559A47DC018C91E80FF11D808961FFE6
:1001F00005C08860808B08952283F2CF877FFACF75
:10020000FC018381813039F018F0823031F008959B
:1002100060E08281D0CF62E0FCCF61E0FACFCF9383
:10022000DF93FC018281863008F03EC090E0DC0163
:10023000AF54BA472C912F3FB9F1FC01E555FA476D
:10024000E08130E2E39FF0011124FC5F61112FC0D7
:10025000268330E04081242399F4EC01CB55DA4722
:100260002881309739F1283028F57096E20FF11D7A
:100270004FB7F8942081311120C0277F20834FBFD2
:100280008E579A47FC018081882371F0803161F498
:100290008C918038A1F0853008F0880F9091010A88
:1002A000809589238093010ADF91CF91089525835A
:1002B00031E0D0CFF0E0E0E0DBCF2860DFCF81E0BD
:1002C000EDCFDC0112968C91282F30E08630C8F4F7
:1002D000F901EF54FA4780818F3F99F025553A474D
:1002E000D901EC91B0E2EB9FF0011124FC5F908505
:1002F000892391E009F490E081E0911101C080E050
:1003000008959FEFF9CF1F93CF93DF93EC01162F42
:100310008C819D81DC01ED91FC910480F581E02DC3
:1003200061E009958FE39CE90197F1F700C00000B7
:100330008A819B81DC01ED91FC910480F581E02DA7
:10034000612F09958E819F81DC01ED91FC910480E4
:10035000F581E02D612F09958FE39CE90197F1F775
:1003600000C000008C819D81DC01ED91FC91048036
:10037000F581E02D60E0DF91CF911F910994FC01A0
:10038000628521E062276287BECFFC01128660E0B1
:10039000BACF21E0FC01228761E0B5CFCF93DF9394
:1003A000EC0188859985DC01ED91FC910190F0814B
:1003B000E02D09958A819B81DC01ED91FC910190F2
:1003C000F081E02D09958C819D81DC01ED91FC91FE
:1003D0000190F081E02D09958E819F81DC01ED91E6
:1003E000FC910190F081E02D099588859985DC01CB
:1003F000ED91FC910280F381E02D099561E0682781
:100400006A87CE01DF91CF917ECFEF93FF93EFEA22
:10041000FFE38F938FB78F939F937F9371E08081DA
:1004200091818C5E9F4F80839183885E934018F00A
:10043000808391837F5F9281970F928380E0938185
:10044000981F93839481981F94839581981F958317
:1004500096819F5F968397819F4F978390859F4F4B
:10046000908791859F4F918782E080930B0A7F91BF
:100470009F918F918FBF8F91FF91EF91189588ED8C
:1004800090E084BF90936100E0E0F6E083E5828332
:100490008AE0858380E2838381E080831092020278
:1004A0008093030A8EEF8093260A8093270A8BE0BD
:1004B0008093000A82E080930A0A789484E99FE39B
:1004C0006DDF8FE99FE36CDE8FE99FE3DBDD8091D9
:1004D000AD3F8823C9F384E99FE351DFF5CF1F9334
:1004E000CF93DF93C0E9DFE38FE995E888839983B1
:1004F00024E02A8341E04B83ACE8BFE38D939C93D7
:10050000119712961C92129713964C93139728E802
:100510003FE3F9018083918353E0528312E0138318
:1005200064E87FE3FB01808391834283138340E887
:100530005FE3FA018083918312831383E4E9FFE38D
:1005400083E995E880839183628373834483558331
:1005500026833783C087D1871286EFE9FFE38BE8D4
:1005600095E880839183A283B383DF91CF911F911C
:100570000895EE0FFF1F0590F491E02D0994F89473
:02058000FFCFAB
:10058200001010100000000000D000420000000027
:1005920000CE01C901C501BF0100000000000161D8
:1005A200010F0106070102030000000000000040E5
:0505B2008002040801B5
:00000001FF
